{
  "contractName": "transaction",
  "abi": [
    {
      "inputs": [
        {
          "internalType": "address",
          "name": "buyer_",
          "type": "address"
        }
      ],
      "stateMutability": "payable",
      "type": "constructor",
      "payable": true
    },
    {
      "inputs": [],
      "name": "buyer",
      "outputs": [
        {
          "internalType": "address",
          "name": "",
          "type": "address"
        }
      ],
      "stateMutability": "view",
      "type": "function",
      "constant": true
    },
    {
      "inputs": [],
      "name": "seller",
      "outputs": [
        {
          "internalType": "address",
          "name": "",
          "type": "address"
        }
      ],
      "stateMutability": "view",
      "type": "function",
      "constant": true
    },
    {
      "inputs": [
        {
          "internalType": "string",
          "name": "name_",
          "type": "string"
        }
      ],
      "name": "createProduct",
      "outputs": [],
      "stateMutability": "payable",
      "type": "function",
      "payable": true
    },
    {
      "inputs": [
        {
          "internalType": "uint256",
          "name": "index",
          "type": "uint256"
        },
        {
          "internalType": "uint256",
          "name": "quantity_",
          "type": "uint256"
        }
      ],
      "name": "createorder",
      "outputs": [],
      "stateMutability": "payable",
      "type": "function",
      "payable": true
    },
    {
      "inputs": [
        {
          "internalType": "uint256",
          "name": "index",
          "type": "uint256"
        },
        {
          "internalType": "uint256",
          "name": "price_",
          "type": "uint256"
        }
      ],
      "name": "setPrice",
      "outputs": [],
      "stateMutability": "payable",
      "type": "function",
      "payable": true
    },
    {
      "inputs": [
        {
          "internalType": "uint256",
          "name": "index",
          "type": "uint256"
        },
        {
          "internalType": "uint256",
          "name": "shipmentprice_",
          "type": "uint256"
        }
      ],
      "name": "setShipmentPrice",
      "outputs": [],
      "stateMutability": "payable",
      "type": "function",
      "payable": true
    },
    {
      "inputs": [
        {
          "internalType": "uint256",
          "name": "index",
          "type": "uint256"
        },
        {
          "internalType": "address payable",
          "name": "address_",
          "type": "address"
        }
      ],
      "name": "setCourier",
      "outputs": [],
      "stateMutability": "payable",
      "type": "function",
      "payable": true
    },
    {
      "inputs": [
        {
          "internalType": "uint256",
          "name": "index",
          "type": "uint256"
        }
      ],
      "name": "payForOrder",
      "outputs": [],
      "stateMutability": "payable",
      "type": "function",
      "payable": true
    },
    {
      "inputs": [
        {
          "internalType": "uint256",
          "name": "index",
          "type": "uint256"
        }
      ],
      "name": "confirmDelivery",
      "outputs": [],
      "stateMutability": "payable",
      "type": "function",
      "payable": true
    },
    {
      "inputs": [
        {
          "internalType": "uint256",
          "name": "index",
          "type": "uint256"
        }
      ],
      "name": "getOrderInfo",
      "outputs": [
        {
          "internalType": "address payable",
          "name": "courier",
          "type": "address"
        },
        {
          "internalType": "string",
          "name": "product1",
          "type": "string"
        },
        {
          "internalType": "uint256",
          "name": "quantity",
          "type": "uint256"
        },
        {
          "internalType": "uint256",
          "name": "price",
          "type": "uint256"
        },
        {
          "internalType": "uint256",
          "name": "shipmnetPrice",
          "type": "uint256"
        },
        {
          "internalType": "uint256",
          "name": "payment",
          "type": "uint256"
        }
      ],
      "stateMutability": "view",
      "type": "function",
      "constant": true
    },
    {
      "inputs": [
        {
          "internalType": "uint256",
          "name": "index",
          "type": "uint256"
        }
      ],
      "name": "getFullPrice",
      "outputs": [
        {
          "internalType": "uint256",
          "name": "",
          "type": "uint256"
        }
      ],
      "stateMutability": "view",
      "type": "function",
      "constant": true
    },
    {
      "inputs": [
        {
          "internalType": "uint256",
          "name": "index",
          "type": "uint256"
        }
      ],
      "name": "getOrderStatus",
      "outputs": [
        {
          "internalType": "bool",
          "name": "paymentstatus",
          "type": "bool"
        },
        {
          "internalType": "bool",
          "name": "deliverystatus",
          "type": "bool"
        }
      ],
      "stateMutability": "view",
      "type": "function",
      "constant": true
    },
    {
      "inputs": [],
      "name": "getProducts",
      "outputs": [
        {
          "internalType": "string[]",
          "name": "",
          "type": "string[]"
        }
      ],
      "stateMutability": "view",
      "type": "function",
      "constant": true
    }
  ],
  "bytecode": "0x608060405260405162001abd38038062001abd83398181016040528101906200002991906200031b565b336000806101000a81548173ffffffffffffffffffffffffffffffffffffffff021916908373ffffffffffffffffffffffffffffffffffffffff16021790555080600160006101000a81548173ffffffffffffffffffffffffffffffffffffffff021916908373ffffffffffffffffffffffffffffffffffffffff160217905550600380600181540180825580915050600190039060005260206000200160006040518060400160405280600881526020017f70726f6475637431000000000000000000000000000000000000000000000000815250909190915090805190602001906200011992919062000201565b50600380600181540180825580915050600190039060005260206000200160006040518060400160405280600881526020017f70726f6475637432000000000000000000000000000000000000000000000000815250909190915090805190602001906200018992919062000201565b50600380600181540180825580915050600190039060005260206000200160006040518060400160405280600881526020017f70726f647563743300000000000000000000000000000000000000000000000081525090919091509080519060200190620001f992919062000201565b5050620003b2565b8280546200020f906200037c565b90600052602060002090601f0160209004810192826200023357600085556200027f565b82601f106200024e57805160ff19168380011785556200027f565b828001600101855582156200027f579182015b828111156200027e57825182559160200191906001019062000261565b5b5090506200028e919062000292565b5090565b5b80821115620002ad57600081600090555060010162000293565b5090565b600080fd5b600073ffffffffffffffffffffffffffffffffffffffff82169050919050565b6000620002e382620002b6565b9050919050565b620002f581620002d6565b81146200030157600080fd5b50565b6000815190506200031581620002ea565b92915050565b600060208284031215620003345762000333620002b1565b5b6000620003448482850162000304565b91505092915050565b7f4e487b7100000000000000000000000000000000000000000000000000000000600052602260045260246000fd5b600060028204905060018216806200039557607f821691505b60208210811415620003ac57620003ab6200034d565b5b50919050565b6116fb80620003c26000396000f3fe6080604052600436106100c25760003560e01c80637150d8ae1161007f578063d9c2dcee11610059578063d9c2dcee14610259578063e081e58514610275578063f7d9757714610291578063fd84cb97146102ad576100c2565b80637150d8ae146101c1578063c29b2f20146101ec578063d311636b14610217576100c2565b806302ec06be146100c757806308551a53146100e3578063232667a31461010e578063397e5eae1461012a57806345fa8aae146101675780634c808d27146101a5575b600080fd5b6100e160048036038101906100dc919061114f565b6102c9565b005b3480156100ef57600080fd5b506100f8610360565b60405161010591906111d9565b60405180910390f35b61012860048036038101906101239190611268565b610384565b005b34801561013657600080fd5b50610151600480360381019061014c91906112a8565b610444565b60405161015e91906112e4565b60405180910390f35b34801561017357600080fd5b5061018e600480360381019061018991906112a8565b6104a3565b60405161019c92919061131a565b60405180910390f35b6101bf60048036038101906101ba9190611343565b610515565b005b3480156101cd57600080fd5b506101d661076c565b6040516101e391906111d9565b60405180910390f35b3480156101f857600080fd5b50610201610792565b60405161020e91906114cd565b60405180910390f35b34801561022357600080fd5b5061023e600480360381019061023991906112a8565b61086b565b60405161025096959493929190611548565b60405180910390f35b610273600480360381019061026e91906112a8565b610a19565b005b61028f600480360381019061028a9190611343565b610b82565b005b6102ab60048036038101906102a69190611343565b610c4b565b005b6102c760048036038101906102c291906112a8565b610d14565b005b60008054906101000a900473ffffffffffffffffffffffffffffffffffffffff1673ffffffffffffffffffffffffffffffffffffffff163373ffffffffffffffffffffffffffffffffffffffff161461032157600080fd5b60038190806001815401808255809150506001900390600052602060002001600090919091909150908051906020019061035c929190610f52565b5050565b60008054906101000a900473ffffffffffffffffffffffffffffffffffffffff1681565b60008054906101000a900473ffffffffffffffffffffffffffffffffffffffff1673ffffffffffffffffffffffffffffffffffffffff163373ffffffffffffffffffffffffffffffffffffffff16146103dc57600080fd5b80600283815481106103f1576103f06115b0565b5b906000526020600020906007020160000160006101000a81548173ffffffffffffffffffffffffffffffffffffffff021916908373ffffffffffffffffffffffffffffffffffffffff1602179055505050565b60006002828154811061045a576104596115b0565b5b906000526020600020906007020160040154600283815481106104805761047f6115b0565b5b90600052602060002090600702016003015461049c919061160e565b9050919050565b600080600283815481106104ba576104b96115b0565b5b906000526020600020906007020160060160009054906101000a900460ff16600284815481106104ed576104ec6115b0565b5b906000526020600020906007020160060160019054906101000a900460ff1691509150915091565b600160009054906101000a900473ffffffffffffffffffffffffffffffffffffffff1673ffffffffffffffffffffffffffffffffffffffff163373ffffffffffffffffffffffffffffffffffffffff161461056f57600080fd5b6002604051806101000160405280600073ffffffffffffffffffffffffffffffffffffffff168152602001600385815481106105ae576105ad6115b0565b5b9060005260206000200180546105c390611693565b80601f01602080910402602001604051908101604052809291908181526020018280546105ef90611693565b801561063c5780601f106106115761010080835404028352916020019161063c565b820191906000526020600020905b81548152906001019060200180831161061f57829003601f168201915b5050505050815260200183815260200160008152602001600081526020016000815260200160001515815260200160001515815250908060018154018082558091505060019003906000526020600020906007020160009091909190915060008201518160000160006101000a81548173ffffffffffffffffffffffffffffffffffffffff021916908373ffffffffffffffffffffffffffffffffffffffff16021790555060208201518160010190805190602001906106fd929190610f52565b5060408201518160020155606082015181600301556080820151816004015560a0820151816005015560c08201518160060160006101000a81548160ff02191690831515021790555060e08201518160060160016101000a81548160ff02191690831515021790555050505050565b600160009054906101000a900473ffffffffffffffffffffffffffffffffffffffff1681565b60606003805480602002602001604051908101604052809291908181526020016000905b828210156108625783829060005260206000200180546107d590611693565b80601f016020809104026020016040519081016040528092919081815260200182805461080190611693565b801561084e5780601f106108235761010080835404028352916020019161084e565b820191906000526020600020905b81548152906001019060200180831161083157829003601f168201915b5050505050815260200190600101906107b6565b50505050905090565b6000606060008060008060028781548110610889576108886115b0565b5b906000526020600020906007020160000160009054906101000a900473ffffffffffffffffffffffffffffffffffffffff16600288815481106108cf576108ce6115b0565b5b9060005260206000209060070201600101600289815481106108f4576108f36115b0565b5b90600052602060002090600702016002015460028a8154811061091a576109196115b0565b5b90600052602060002090600702016003015460028b815481106109405761093f6115b0565b5b90600052602060002090600702016004015460028c81548110610966576109656115b0565b5b90600052602060002090600702016005015484805461098490611693565b80601f01602080910402602001604051908101604052809291908181526020018280546109b090611693565b80156109fd5780601f106109d2576101008083540402835291602001916109fd565b820191906000526020600020905b8154815290600101906020018083116109e057829003601f168201915b5050505050945095509550955095509550955091939550919395565b600160009054906101000a900473ffffffffffffffffffffffffffffffffffffffff1673ffffffffffffffffffffffffffffffffffffffff163373ffffffffffffffffffffffffffffffffffffffff1614610a7357600080fd5b3460028281548110610a8857610a876115b0565b5b90600052602060002090600702016004015460028381548110610aae57610aad6115b0565b5b906000526020600020906007020160030154610aca919061160e565b14610ad457600080fd5b6000151560028281548110610aec57610aeb6115b0565b5b906000526020600020906007020160060160009054906101000a900460ff16151514610b1757600080fd5b3460028281548110610b2c57610b2b6115b0565b5b906000526020600020906007020160050181905550600160028281548110610b5757610b566115b0565b5b906000526020600020906007020160060160006101000a81548160ff02191690831515021790555050565b60008054906101000a900473ffffffffffffffffffffffffffffffffffffffff1673ffffffffffffffffffffffffffffffffffffffff163373ffffffffffffffffffffffffffffffffffffffff1614610bda57600080fd5b6000151560028381548110610bf257610bf16115b0565b5b906000526020600020906007020160060160019054906101000a900460ff16151514610c1d57600080fd5b8060028381548110610c3257610c316115b0565b5b9060005260206000209060070201600401819055505050565b60008054906101000a900473ffffffffffffffffffffffffffffffffffffffff1673ffffffffffffffffffffffffffffffffffffffff163373ffffffffffffffffffffffffffffffffffffffff1614610ca357600080fd5b6000151560028381548110610cbb57610cba6115b0565b5b906000526020600020906007020160060160019054906101000a900460ff16151514610ce657600080fd5b8060028381548110610cfb57610cfa6115b0565b5b9060005260206000209060070201600301819055505050565b60028181548110610d2857610d276115b0565b5b906000526020600020906007020160000160009054906101000a900473ffffffffffffffffffffffffffffffffffffffff1673ffffffffffffffffffffffffffffffffffffffff163373ffffffffffffffffffffffffffffffffffffffff1614610d9157600080fd5b6000151560028281548110610da957610da86115b0565b5b906000526020600020906007020160060160019054906101000a900460ff16151514610dd457600080fd5b600160028281548110610dea57610de96115b0565b5b906000526020600020906007020160060160016101000a81548160ff02191690831515021790555060008054906101000a900473ffffffffffffffffffffffffffffffffffffffff1673ffffffffffffffffffffffffffffffffffffffff166108fc60028381548110610e6057610e5f6115b0565b5b9060005260206000209060070201600301549081150290604051600060405180830381858888f19350505050158015610e9d573d6000803e3d6000fd5b5060028181548110610eb257610eb16115b0565b5b906000526020600020906007020160000160009054906101000a900473ffffffffffffffffffffffffffffffffffffffff1673ffffffffffffffffffffffffffffffffffffffff166108fc60028381548110610f1157610f106115b0565b5b9060005260206000209060070201600401549081150290604051600060405180830381858888f19350505050158015610f4e573d6000803e3d6000fd5b5050565b828054610f5e90611693565b90600052602060002090601f016020900481019282610f805760008555610fc7565b82601f10610f9957805160ff1916838001178555610fc7565b82800160010185558215610fc7579182015b82811115610fc6578251825591602001919060010190610fab565b5b509050610fd49190610fd8565b5090565b5b80821115610ff1576000816000905550600101610fd9565b5090565b6000604051905090565b600080fd5b600080fd5b600080fd5b600080fd5b6000601f19601f8301169050919050565b7f4e487b7100000000000000000000000000000000000000000000000000000000600052604160045260246000fd5b61105c82611013565b810181811067ffffffffffffffff8211171561107b5761107a611024565b5b80604052505050565b600061108e610ff5565b905061109a8282611053565b919050565b600067ffffffffffffffff8211156110ba576110b9611024565b5b6110c382611013565b9050602081019050919050565b82818337600083830152505050565b60006110f26110ed8461109f565b611084565b90508281526020810184848401111561110e5761110d61100e565b5b6111198482856110d0565b509392505050565b600082601f83011261113657611135611009565b5b81356111468482602086016110df565b91505092915050565b60006020828403121561116557611164610fff565b5b600082013567ffffffffffffffff81111561118357611182611004565b5b61118f84828501611121565b91505092915050565b600073ffffffffffffffffffffffffffffffffffffffff82169050919050565b60006111c382611198565b9050919050565b6111d3816111b8565b82525050565b60006020820190506111ee60008301846111ca565b92915050565b6000819050919050565b611207816111f4565b811461121257600080fd5b50565b600081359050611224816111fe565b92915050565b600061123582611198565b9050919050565b6112458161122a565b811461125057600080fd5b50565b6000813590506112628161123c565b92915050565b6000806040838503121561127f5761127e610fff565b5b600061128d85828601611215565b925050602061129e85828601611253565b9150509250929050565b6000602082840312156112be576112bd610fff565b5b60006112cc84828501611215565b91505092915050565b6112de816111f4565b82525050565b60006020820190506112f960008301846112d5565b92915050565b60008115159050919050565b611314816112ff565b82525050565b600060408201905061132f600083018561130b565b61133c602083018461130b565b9392505050565b6000806040838503121561135a57611359610fff565b5b600061136885828601611215565b925050602061137985828601611215565b9150509250929050565b600081519050919050565b600082825260208201905092915050565b6000819050602082019050919050565b600081519050919050565b600082825260208201905092915050565b60005b838110156113e95780820151818401526020810190506113ce565b838111156113f8576000848401525b50505050565b6000611409826113af565b61141381856113ba565b93506114238185602086016113cb565b61142c81611013565b840191505092915050565b600061144383836113fe565b905092915050565b6000602082019050919050565b600061146382611383565b61146d818561138e565b93508360208202850161147f8561139f565b8060005b858110156114bb578484038952815161149c8582611437565b94506114a78361144b565b925060208a01995050600181019050611483565b50829750879550505050505092915050565b600060208201905081810360008301526114e78184611458565b905092915050565b6114f88161122a565b82525050565b600082825260208201905092915050565b600061151a826113af565b61152481856114fe565b93506115348185602086016113cb565b61153d81611013565b840191505092915050565b600060c08201905061155d60008301896114ef565b818103602083015261156f818861150f565b905061157e60408301876112d5565b61158b60608301866112d5565b61159860808301856112d5565b6115a560a08301846112d5565b979650505050505050565b7f4e487b7100000000000000000000000000000000000000000000000000000000600052603260045260246000fd5b7f4e487b7100000000000000000000000000000000000000000000000000000000600052601160045260246000fd5b6000611619826111f4565b9150611624836111f4565b9250827fffffffffffffffffffffffffffffffffffffffffffffffffffffffffffffffff03821115611659576116586115df565b5b828201905092915050565b7f4e487b7100000000000000000000000000000000000000000000000000000000600052602260045260246000fd5b600060028204905060018216806116ab57607f821691505b602082108114156116bf576116be611664565b5b5091905056fea26469706673582212204e1022faf767ef2a237a16cf46af8af8a5ce883f8e39e285771df1acec2514bc64736f6c634300080a0033",
  "immutableReferences": {},
  "source": "pragma solidity >=0.7.0 <0.9.0;\r\n\r\n/**\r\n * @title Storage\r\n * @dev Store & retrieve value in a variable\r\n */\r\ncontract transaction {\r\n address public seller;\r\n address public buyer;\r\n\r\n struct order{\r\n   address payable courier;\r\n   string product;\r\n   uint quantity;\r\n    uint price;\r\n    uint shipmentPrice;\r\n    uint payment;\r\n    bool paymentstatus;\r\n    bool deliverystatus;\r\n }\r\n struct product{\r\n   string name;\r\n }\r\n\r\n \r\n  //mapping (uint => order) orders;\r\n  order[] orders;\r\n  //product[] products;\r\n  string[] products;\r\n  \r\n  /*address  payable seller;\r\n  address public  buyer;*/\r\n\r\n constructor (address buyer_) public payable {\r\n    seller = msg.sender;\r\n    buyer = buyer_;\r\n    products.push(\"product1\");\r\n     products.push(\"product2\");\r\n    products.push(\"product3\");\r\n  }\r\n function createProduct(string memory name_)payable public{\r\n   require(msg.sender==seller);\r\n   products.push(name_);\r\n }\r\n function createorder(uint index, uint quantity_) payable public{\r\n    require(msg.sender==buyer);\r\n    orders.push(order( payable(0), products[index], quantity_, 0, 0, 0, false,  false));\r\n\r\n  }\r\n  function setPrice(uint index, uint price_) payable public{\r\n      require(msg.sender==seller);\r\n      require(orders[index].deliverystatus==false);\r\n      orders[index].price=price_;\r\n  }\r\n   function setShipmentPrice(uint index, uint shipmentprice_) payable public{\r\n      require(msg.sender==seller);\r\n     require(orders[index].deliverystatus==false);\r\n      orders[index].shipmentPrice=shipmentprice_;\r\n  }\r\n  function setCourier(uint index, address payable address_) payable public{\r\n    require(msg.sender==seller);\r\n    orders[index].courier=address_;\r\n  }\r\n  function payForOrder(uint index)payable public{\r\n    require(msg.sender==buyer);\r\n    require((orders[index].price+orders[index].shipmentPrice)==msg.value);\r\n    require(orders[index].paymentstatus==false);\r\n    orders[index].payment=msg.value;\r\n    orders[index].paymentstatus=true;\r\n  }\r\n  function confirmDelivery(uint index) payable public{\r\n    require(msg.sender==orders[index].courier);\r\n    require(orders[index].deliverystatus==false);\r\n    orders[index].deliverystatus=true;\r\n    payable(seller).transfer(orders[index].price);\r\n    orders[index].courier.transfer(orders[index].shipmentPrice);\r\n\r\n  }\r\n\r\n  function getOrderInfo(uint index) view public returns(address payable courier, string memory product1, uint quantity, uint price, uint shipmnetPrice, uint payment) {\r\n    \r\n    return (orders[index].courier, orders[index].product, orders[index].quantity,  orders[index].price, orders[index].shipmentPrice, orders[index].payment );\r\n  }\r\n  function getFullPrice(uint index) view public  returns(uint ){\r\n    return(orders[index].price+orders[index].shipmentPrice);\r\n  }\r\n  \r\n  function getOrderStatus(uint index) view public returns ( bool paymentstatus, bool deliverystatus){\r\n    return(orders[index].paymentstatus, orders[index].deliverystatus );\r\n  }\r\n  function getProducts() view public returns(string[] memory){\r\n    return(products);\r\n  }\r\n\r\n\r\n}",
  "sourcePath": "C:\\Users\\karol\\my-app\\contracts\\uzd3.sol",
  "compiler": {
    "name": "solc",
    "version": "0.8.10+commit.fc410830.Emscripten.clang"
  },
  "schemaVersion": "3.4.3",
  "updatedAt": "2021-12-09T21:15:48.272Z",
  "networkType": "ethereum",
  "devdoc": {
    "details": "Store & retrieve value in a variable",
    "kind": "dev",
    "methods": {},
    "title": "Storage",
    "version": 1
  },
  "userdoc": {
    "kind": "user",
    "methods": {},
    "version": 1
  }
}