{
  "contractName": "transaction",
  "abi": [
    {
      "inputs": [
        {
          "internalType": "address",
          "name": "buyer_",
          "type": "address"
        }
      ],
      "stateMutability": "payable",
      "type": "constructor",
      "payable": true
    },
    {
      "inputs": [],
      "name": "buyer",
      "outputs": [
        {
          "internalType": "address",
          "name": "",
          "type": "address"
        }
      ],
      "stateMutability": "view",
      "type": "function",
      "constant": true
    },
    {
      "inputs": [],
      "name": "seller",
      "outputs": [
        {
          "internalType": "address",
          "name": "",
          "type": "address"
        }
      ],
      "stateMutability": "view",
      "type": "function",
      "constant": true
    },
    {
      "inputs": [
        {
          "internalType": "string",
          "name": "product_",
          "type": "string"
        },
        {
          "internalType": "uint256",
          "name": "quantity_",
          "type": "uint256"
        }
      ],
      "name": "createorder",
      "outputs": [],
      "stateMutability": "payable",
      "type": "function",
      "payable": true
    },
    {
      "inputs": [
        {
          "internalType": "uint256",
          "name": "index",
          "type": "uint256"
        },
        {
          "internalType": "uint256",
          "name": "price_",
          "type": "uint256"
        }
      ],
      "name": "setPrice",
      "outputs": [],
      "stateMutability": "payable",
      "type": "function",
      "payable": true
    },
    {
      "inputs": [
        {
          "internalType": "uint256",
          "name": "index",
          "type": "uint256"
        },
        {
          "internalType": "uint256",
          "name": "shipmentprice_",
          "type": "uint256"
        }
      ],
      "name": "setShipmentPrice",
      "outputs": [],
      "stateMutability": "payable",
      "type": "function",
      "payable": true
    },
    {
      "inputs": [
        {
          "internalType": "uint256",
          "name": "index",
          "type": "uint256"
        },
        {
          "internalType": "address payable",
          "name": "address_",
          "type": "address"
        }
      ],
      "name": "setCourier",
      "outputs": [],
      "stateMutability": "payable",
      "type": "function",
      "payable": true
    },
    {
      "inputs": [
        {
          "internalType": "uint256",
          "name": "index",
          "type": "uint256"
        }
      ],
      "name": "payForOrder",
      "outputs": [],
      "stateMutability": "payable",
      "type": "function",
      "payable": true
    },
    {
      "inputs": [
        {
          "internalType": "uint256",
          "name": "index",
          "type": "uint256"
        }
      ],
      "name": "confirmDelivery",
      "outputs": [],
      "stateMutability": "payable",
      "type": "function",
      "payable": true
    },
    {
      "inputs": [
        {
          "internalType": "uint256",
          "name": "index",
          "type": "uint256"
        }
      ],
      "name": "getOrderInfo",
      "outputs": [
        {
          "internalType": "address payable",
          "name": "courier",
          "type": "address"
        },
        {
          "internalType": "string",
          "name": "product",
          "type": "string"
        },
        {
          "internalType": "uint256",
          "name": "quantity",
          "type": "uint256"
        },
        {
          "internalType": "uint256",
          "name": "price",
          "type": "uint256"
        },
        {
          "internalType": "uint256",
          "name": "shipmnetPrice",
          "type": "uint256"
        },
        {
          "internalType": "uint256",
          "name": "payment",
          "type": "uint256"
        }
      ],
      "stateMutability": "view",
      "type": "function",
      "constant": true
    },
    {
      "inputs": [
        {
          "internalType": "uint256",
          "name": "index",
          "type": "uint256"
        }
      ],
      "name": "getFullPrice",
      "outputs": [
        {
          "internalType": "uint256",
          "name": "",
          "type": "uint256"
        }
      ],
      "stateMutability": "view",
      "type": "function",
      "constant": true
    },
    {
      "inputs": [
        {
          "internalType": "uint256",
          "name": "index",
          "type": "uint256"
        }
      ],
      "name": "getOrderStatus",
      "outputs": [
        {
          "internalType": "bool",
          "name": "paymentstatus",
          "type": "bool"
        },
        {
          "internalType": "bool",
          "name": "deliverystatus",
          "type": "bool"
        }
      ],
      "stateMutability": "view",
      "type": "function",
      "constant": true
    }
  ],
  "bytecode": "0x6080604052604051620014343803806200143483398181016040528101906200002991906200011b565b336000806101000a81548173ffffffffffffffffffffffffffffffffffffffff021916908373ffffffffffffffffffffffffffffffffffffffff16021790555080600160006101000a81548173ffffffffffffffffffffffffffffffffffffffff021916908373ffffffffffffffffffffffffffffffffffffffff160217905550506200014d565b600080fd5b600073ffffffffffffffffffffffffffffffffffffffff82169050919050565b6000620000e382620000b6565b9050919050565b620000f581620000d6565b81146200010157600080fd5b50565b6000815190506200011581620000ea565b92915050565b600060208284031215620001345762000133620000b1565b5b6000620001448482850162000104565b91505092915050565b6112d7806200015d6000396000f3fe60806040526004361061009c5760003560e01c80637150d8ae116100645780637150d8ae1461017f578063d311636b146101aa578063d9c2dcee146101ec578063e081e58514610208578063f7d9757714610224578063fd84cb97146102405761009c565b806308551a53146100a1578063149d0af5146100cc578063232667a3146100e8578063397e5eae1461010457806345fa8aae14610141575b600080fd5b3480156100ad57600080fd5b506100b661025c565b6040516100c39190610d2d565b60405180910390f35b6100e660048036038101906100e19190610ed8565b610280565b005b61010260048036038101906100fd9190610f72565b610431565b005b34801561011057600080fd5b5061012b60048036038101906101269190610fb2565b6104f1565b6040516101389190610fee565b60405180910390f35b34801561014d57600080fd5b5061016860048036038101906101639190610fb2565b610550565b604051610176929190611024565b60405180910390f35b34801561018b57600080fd5b506101946105c2565b6040516101a19190610d2d565b60405180910390f35b3480156101b657600080fd5b506101d160048036038101906101cc9190610fb2565b6105e8565b6040516101e3969594939291906110e4565b60405180910390f35b61020660048036038101906102019190610fb2565b610796565b005b610222600480360381019061021d919061114c565b6108ff565b005b61023e6004803603810190610239919061114c565b610985565b005b61025a60048036038101906102559190610fb2565b610a0b565b005b60008054906101000a900473ffffffffffffffffffffffffffffffffffffffff1681565b600160009054906101000a900473ffffffffffffffffffffffffffffffffffffffff1673ffffffffffffffffffffffffffffffffffffffff163373ffffffffffffffffffffffffffffffffffffffff16146102da57600080fd5b6002604051806101000160405280600073ffffffffffffffffffffffffffffffffffffffff16815260200184815260200183815260200160008152602001600081526020016000815260200160001515815260200160001515815250908060018154018082558091505060019003906000526020600020906007020160009091909190915060008201518160000160006101000a81548173ffffffffffffffffffffffffffffffffffffffff021916908373ffffffffffffffffffffffffffffffffffffffff16021790555060208201518160010190805190602001906103c2929190610c49565b5060408201518160020155606082015181600301556080820151816004015560a0820151816005015560c08201518160060160006101000a81548160ff02191690831515021790555060e08201518160060160016101000a81548160ff02191690831515021790555050505050565b60008054906101000a900473ffffffffffffffffffffffffffffffffffffffff1673ffffffffffffffffffffffffffffffffffffffff163373ffffffffffffffffffffffffffffffffffffffff161461048957600080fd5b806002838154811061049e5761049d61118c565b5b906000526020600020906007020160000160006101000a81548173ffffffffffffffffffffffffffffffffffffffff021916908373ffffffffffffffffffffffffffffffffffffffff1602179055505050565b6000600282815481106105075761050661118c565b5b9060005260206000209060070201600401546002838154811061052d5761052c61118c565b5b90600052602060002090600702016003015461054991906111ea565b9050919050565b600080600283815481106105675761056661118c565b5b906000526020600020906007020160060160009054906101000a900460ff166002848154811061059a5761059961118c565b5b906000526020600020906007020160060160019054906101000a900460ff1691509150915091565b600160009054906101000a900473ffffffffffffffffffffffffffffffffffffffff1681565b60006060600080600080600287815481106106065761060561118c565b5b906000526020600020906007020160000160009054906101000a900473ffffffffffffffffffffffffffffffffffffffff166002888154811061064c5761064b61118c565b5b9060005260206000209060070201600101600289815481106106715761067061118c565b5b90600052602060002090600702016002015460028a815481106106975761069661118c565b5b90600052602060002090600702016003015460028b815481106106bd576106bc61118c565b5b90600052602060002090600702016004015460028c815481106106e3576106e261118c565b5b9060005260206000209060070201600501548480546107019061126f565b80601f016020809104026020016040519081016040528092919081815260200182805461072d9061126f565b801561077a5780601f1061074f5761010080835404028352916020019161077a565b820191906000526020600020905b81548152906001019060200180831161075d57829003601f168201915b5050505050945095509550955095509550955091939550919395565b600160009054906101000a900473ffffffffffffffffffffffffffffffffffffffff1673ffffffffffffffffffffffffffffffffffffffff163373ffffffffffffffffffffffffffffffffffffffff16146107f057600080fd5b34600282815481106108055761080461118c565b5b9060005260206000209060070201600401546002838154811061082b5761082a61118c565b5b90600052602060002090600702016003015461084791906111ea565b1461085157600080fd5b60001515600282815481106108695761086861118c565b5b906000526020600020906007020160060160009054906101000a900460ff1615151461089457600080fd5b34600282815481106108a9576108a861118c565b5b9060005260206000209060070201600501819055506001600282815481106108d4576108d361118c565b5b906000526020600020906007020160060160006101000a81548160ff02191690831515021790555050565b60008054906101000a900473ffffffffffffffffffffffffffffffffffffffff1673ffffffffffffffffffffffffffffffffffffffff163373ffffffffffffffffffffffffffffffffffffffff161461095757600080fd5b806002838154811061096c5761096b61118c565b5b9060005260206000209060070201600401819055505050565b60008054906101000a900473ffffffffffffffffffffffffffffffffffffffff1673ffffffffffffffffffffffffffffffffffffffff163373ffffffffffffffffffffffffffffffffffffffff16146109dd57600080fd5b80600283815481106109f2576109f161118c565b5b9060005260206000209060070201600301819055505050565b60028181548110610a1f57610a1e61118c565b5b906000526020600020906007020160000160009054906101000a900473ffffffffffffffffffffffffffffffffffffffff1673ffffffffffffffffffffffffffffffffffffffff163373ffffffffffffffffffffffffffffffffffffffff1614610a8857600080fd5b6000151560028281548110610aa057610a9f61118c565b5b906000526020600020906007020160060160019054906101000a900460ff16151514610acb57600080fd5b600160028281548110610ae157610ae061118c565b5b906000526020600020906007020160060160016101000a81548160ff02191690831515021790555060008054906101000a900473ffffffffffffffffffffffffffffffffffffffff1673ffffffffffffffffffffffffffffffffffffffff166108fc60028381548110610b5757610b5661118c565b5b9060005260206000209060070201600301549081150290604051600060405180830381858888f19350505050158015610b94573d6000803e3d6000fd5b5060028181548110610ba957610ba861118c565b5b906000526020600020906007020160000160009054906101000a900473ffffffffffffffffffffffffffffffffffffffff1673ffffffffffffffffffffffffffffffffffffffff166108fc60028381548110610c0857610c0761118c565b5b9060005260206000209060070201600401549081150290604051600060405180830381858888f19350505050158015610c45573d6000803e3d6000fd5b5050565b828054610c559061126f565b90600052602060002090601f016020900481019282610c775760008555610cbe565b82601f10610c9057805160ff1916838001178555610cbe565b82800160010185558215610cbe579182015b82811115610cbd578251825591602001919060010190610ca2565b5b509050610ccb9190610ccf565b5090565b5b80821115610ce8576000816000905550600101610cd0565b5090565b600073ffffffffffffffffffffffffffffffffffffffff82169050919050565b6000610d1782610cec565b9050919050565b610d2781610d0c565b82525050565b6000602082019050610d426000830184610d1e565b92915050565b6000604051905090565b600080fd5b600080fd5b600080fd5b600080fd5b6000601f19601f8301169050919050565b7f4e487b7100000000000000000000000000000000000000000000000000000000600052604160045260246000fd5b610daf82610d66565b810181811067ffffffffffffffff82111715610dce57610dcd610d77565b5b80604052505050565b6000610de1610d48565b9050610ded8282610da6565b919050565b600067ffffffffffffffff821115610e0d57610e0c610d77565b5b610e1682610d66565b9050602081019050919050565b82818337600083830152505050565b6000610e45610e4084610df2565b610dd7565b905082815260208101848484011115610e6157610e60610d61565b5b610e6c848285610e23565b509392505050565b600082601f830112610e8957610e88610d5c565b5b8135610e99848260208601610e32565b91505092915050565b6000819050919050565b610eb581610ea2565b8114610ec057600080fd5b50565b600081359050610ed281610eac565b92915050565b60008060408385031215610eef57610eee610d52565b5b600083013567ffffffffffffffff811115610f0d57610f0c610d57565b5b610f1985828601610e74565b9250506020610f2a85828601610ec3565b9150509250929050565b6000610f3f82610cec565b9050919050565b610f4f81610f34565b8114610f5a57600080fd5b50565b600081359050610f6c81610f46565b92915050565b60008060408385031215610f8957610f88610d52565b5b6000610f9785828601610ec3565b9250506020610fa885828601610f5d565b9150509250929050565b600060208284031215610fc857610fc7610d52565b5b6000610fd684828501610ec3565b91505092915050565b610fe881610ea2565b82525050565b60006020820190506110036000830184610fdf565b92915050565b60008115159050919050565b61101e81611009565b82525050565b60006040820190506110396000830185611015565b6110466020830184611015565b9392505050565b61105681610f34565b82525050565b600081519050919050565b600082825260208201905092915050565b60005b8381101561109657808201518184015260208101905061107b565b838111156110a5576000848401525b50505050565b60006110b68261105c565b6110c08185611067565b93506110d0818560208601611078565b6110d981610d66565b840191505092915050565b600060c0820190506110f9600083018961104d565b818103602083015261110b81886110ab565b905061111a6040830187610fdf565b6111276060830186610fdf565b6111346080830185610fdf565b61114160a0830184610fdf565b979650505050505050565b6000806040838503121561116357611162610d52565b5b600061117185828601610ec3565b925050602061118285828601610ec3565b9150509250929050565b7f4e487b7100000000000000000000000000000000000000000000000000000000600052603260045260246000fd5b7f4e487b7100000000000000000000000000000000000000000000000000000000600052601160045260246000fd5b60006111f582610ea2565b915061120083610ea2565b9250827fffffffffffffffffffffffffffffffffffffffffffffffffffffffffffffffff03821115611235576112346111bb565b5b828201905092915050565b7f4e487b7100000000000000000000000000000000000000000000000000000000600052602260045260246000fd5b6000600282049050600182168061128757607f821691505b6020821081141561129b5761129a611240565b5b5091905056fea2646970667358221220ea726e38cbc8095a3ed99025746caa8e5a8381b9c4863e66c96155d8d9d5902a64736f6c634300080a0033",
  "immutableReferences": {},
  "source": "pragma solidity >=0.7.0 <0.9.0;\r\n\r\n/**\r\n * @title Storage\r\n * @dev Store & retrieve value in a variable\r\n */\r\ncontract transaction {\r\n address public seller;\r\n address public buyer;\r\n struct order{\r\n   address payable courier;\r\n   string product;\r\n   uint quantity;\r\n    uint price;\r\n    uint shipmentPrice;\r\n    uint payment;\r\n    bool paymentstatus;\r\n    bool deliverystatus;\r\n }\r\n  //mapping (uint => order) orders;\r\n  order[] orders;\r\n  /*address  payable seller;\r\n  address public  buyer;*/\r\n\r\n constructor (address buyer_) public payable {\r\n    seller = msg.sender;\r\n    buyer = buyer_;\r\n  }\r\n function createorder(string memory product_, uint quantity_) payable public{\r\n    require(msg.sender==buyer);\r\n    orders.push(order( payable(0), product_, quantity_, 0, 0, 0, false,  false));\r\n\r\n  }\r\n  function setPrice(uint index, uint price_) payable public{\r\n      require(msg.sender==seller);\r\n      orders[index].price=price_;\r\n  }\r\n   function setShipmentPrice(uint index, uint shipmentprice_) payable public{\r\n      require(msg.sender==seller);\r\n      orders[index].shipmentPrice=shipmentprice_;\r\n  }\r\n  function setCourier(uint index, address payable address_) payable public{\r\n    require(msg.sender==seller);\r\n    orders[index].courier=address_;\r\n  }\r\n  function payForOrder(uint index)payable public{\r\n    require(msg.sender==buyer);\r\n    require((orders[index].price+orders[index].shipmentPrice)==msg.value);\r\n    require(orders[index].paymentstatus==false);\r\n    orders[index].payment=msg.value;\r\n    orders[index].paymentstatus=true;\r\n  }\r\n  function confirmDelivery(uint index) payable public{\r\n    require(msg.sender==orders[index].courier);\r\n    require(orders[index].deliverystatus==false);\r\n    orders[index].deliverystatus=true;\r\n    payable(seller).transfer(orders[index].price);\r\n    orders[index].courier.transfer(orders[index].shipmentPrice);\r\n\r\n  }\r\n\r\n  function getOrderInfo(uint index) view public returns(address payable courier, string memory product, uint quantity, uint price, uint shipmnetPrice, uint payment) {\r\n    \r\n    return (orders[index].courier, orders[index].product, orders[index].quantity,  orders[index].price, orders[index].shipmentPrice, orders[index].payment );\r\n  }\r\n  function getFullPrice(uint index) view public  returns(uint ){\r\n    return(orders[index].price+orders[index].shipmentPrice);\r\n  }\r\n  \r\n  function getOrderStatus(uint index) view public returns ( bool paymentstatus, bool deliverystatus){\r\n    return(orders[index].paymentstatus, orders[index].deliverystatus );\r\n  }\r\n\r\n\r\n}",
  "sourcePath": "C:\\Users\\karol\\my-app\\contracts\\uzd3.sol",
  "compiler": {
    "name": "solc",
    "version": "0.8.10+commit.fc410830.Emscripten.clang"
  },
  "schemaVersion": "3.4.3",
  "updatedAt": "2021-12-09T19:11:19.630Z",
  "networkType": "ethereum",
  "devdoc": {
    "details": "Store & retrieve value in a variable",
    "kind": "dev",
    "methods": {},
    "title": "Storage",
    "version": 1
  },
  "userdoc": {
    "kind": "user",
    "methods": {},
    "version": 1
  }
}