{
  "contractName": "transaction",
  "abi": [
    {
      "inputs": [
        {
          "internalType": "address",
          "name": "buyer_",
          "type": "address"
        }
      ],
      "stateMutability": "payable",
      "type": "constructor",
      "payable": true
    },
    {
      "inputs": [],
      "name": "buyer",
      "outputs": [
        {
          "internalType": "address",
          "name": "",
          "type": "address"
        }
      ],
      "stateMutability": "view",
      "type": "function",
      "constant": true
    },
    {
      "inputs": [],
      "name": "seller",
      "outputs": [
        {
          "internalType": "address",
          "name": "",
          "type": "address"
        }
      ],
      "stateMutability": "view",
      "type": "function",
      "constant": true
    },
    {
      "inputs": [
        {
          "internalType": "string",
          "name": "product_",
          "type": "string"
        },
        {
          "internalType": "uint256",
          "name": "quantity_",
          "type": "uint256"
        }
      ],
      "name": "createorder",
      "outputs": [],
      "stateMutability": "payable",
      "type": "function",
      "payable": true
    },
    {
      "inputs": [
        {
          "internalType": "uint256",
          "name": "index",
          "type": "uint256"
        },
        {
          "internalType": "uint256",
          "name": "price_",
          "type": "uint256"
        }
      ],
      "name": "setPrice",
      "outputs": [],
      "stateMutability": "payable",
      "type": "function",
      "payable": true
    },
    {
      "inputs": [
        {
          "internalType": "uint256",
          "name": "index",
          "type": "uint256"
        },
        {
          "internalType": "uint256",
          "name": "shipmentprice_",
          "type": "uint256"
        }
      ],
      "name": "setShipmentPrice",
      "outputs": [],
      "stateMutability": "payable",
      "type": "function",
      "payable": true
    },
    {
      "inputs": [
        {
          "internalType": "uint256",
          "name": "index",
          "type": "uint256"
        },
        {
          "internalType": "address payable",
          "name": "address_",
          "type": "address"
        }
      ],
      "name": "setCourier",
      "outputs": [],
      "stateMutability": "payable",
      "type": "function",
      "payable": true
    },
    {
      "inputs": [
        {
          "internalType": "uint256",
          "name": "index",
          "type": "uint256"
        }
      ],
      "name": "payForOrder",
      "outputs": [],
      "stateMutability": "payable",
      "type": "function",
      "payable": true
    },
    {
      "inputs": [
        {
          "internalType": "uint256",
          "name": "index",
          "type": "uint256"
        }
      ],
      "name": "confirmDelivery",
      "outputs": [],
      "stateMutability": "payable",
      "type": "function",
      "payable": true
    },
    {
      "inputs": [
        {
          "internalType": "uint256",
          "name": "index",
          "type": "uint256"
        }
      ],
      "name": "getOrderInfo",
      "outputs": [
        {
          "internalType": "address payable",
          "name": "courier",
          "type": "address"
        },
        {
          "internalType": "string",
          "name": "product",
          "type": "string"
        },
        {
          "internalType": "uint256",
          "name": "quantity",
          "type": "uint256"
        },
        {
          "internalType": "uint256",
          "name": "price",
          "type": "uint256"
        },
        {
          "internalType": "uint256",
          "name": "shipmnetPrice",
          "type": "uint256"
        },
        {
          "internalType": "uint256",
          "name": "payment",
          "type": "uint256"
        }
      ],
      "stateMutability": "view",
      "type": "function",
      "constant": true
    }
  ],
  "bytecode": "0x60806040526040516200110f3803806200110f83398181016040528101906100279190610111565b336000806101000a81548173ffffffffffffffffffffffffffffffffffffffff021916908373ffffffffffffffffffffffffffffffffffffffff16021790555080600160006101000a81548173ffffffffffffffffffffffffffffffffffffffff021916908373ffffffffffffffffffffffffffffffffffffffff1602179055505061013e565b600080fd5b600073ffffffffffffffffffffffffffffffffffffffff82169050919050565b60006100de826100b3565b9050919050565b6100ee816100d3565b81146100f957600080fd5b50565b60008151905061010b816100e5565b92915050565b600060208284031215610127576101266100ae565b5b6000610135848285016100fc565b91505092915050565b610fc1806200014e6000396000f3fe6080604052600436106100865760003560e01c8063d311636b11610059578063d311636b14610119578063d9c2dcee1461015b578063e081e58514610177578063f7d9757714610193578063fd84cb97146101af57610086565b806308551a531461008b578063149d0af5146100b6578063232667a3146100d25780637150d8ae146100ee575b600080fd5b34801561009757600080fd5b506100a06101cb565b6040516100ad9190610a76565b60405180910390f35b6100d060048036038101906100cb9190610c21565b6101ef565b005b6100ec60048036038101906100e79190610cbb565b61034d565b005b3480156100fa57600080fd5b5061010361040d565b6040516101109190610a76565b60405180910390f35b34801561012557600080fd5b50610140600480360381019061013b9190610cfb565b610433565b60405161015296959493929190610dce565b60405180910390f35b61017560048036038101906101709190610cfb565b6105e1565b005b610191600480360381019061018c9190610e36565b6106c9565b005b6101ad60048036038101906101a89190610e36565b61074f565b005b6101c960048036038101906101c49190610cfb565b6107d5565b005b60008054906101000a900473ffffffffffffffffffffffffffffffffffffffff1681565b600160009054906101000a900473ffffffffffffffffffffffffffffffffffffffff1673ffffffffffffffffffffffffffffffffffffffff163373ffffffffffffffffffffffffffffffffffffffff161461024957600080fd5b60026040518060c00160405280600073ffffffffffffffffffffffffffffffffffffffff16815260200184815260200183815260200160008152602001600081526020016000815250908060018154018082558091505060019003906000526020600020906006020160009091909190915060008201518160000160006101000a81548173ffffffffffffffffffffffffffffffffffffffff021916908373ffffffffffffffffffffffffffffffffffffffff160217905550602082015181600101908051906020019061031e929190610992565b5060408201518160020155606082015181600301556080820151816004015560a0820151816005015550505050565b60008054906101000a900473ffffffffffffffffffffffffffffffffffffffff1673ffffffffffffffffffffffffffffffffffffffff163373ffffffffffffffffffffffffffffffffffffffff16146103a557600080fd5b80600283815481106103ba576103b9610e76565b5b906000526020600020906006020160000160006101000a81548173ffffffffffffffffffffffffffffffffffffffff021916908373ffffffffffffffffffffffffffffffffffffffff1602179055505050565b600160009054906101000a900473ffffffffffffffffffffffffffffffffffffffff1681565b600060606000806000806002878154811061045157610450610e76565b5b906000526020600020906006020160000160009054906101000a900473ffffffffffffffffffffffffffffffffffffffff166002888154811061049757610496610e76565b5b9060005260206000209060060201600101600289815481106104bc576104bb610e76565b5b90600052602060002090600602016002015460028a815481106104e2576104e1610e76565b5b90600052602060002090600602016003015460028b8154811061050857610507610e76565b5b90600052602060002090600602016004015460028c8154811061052e5761052d610e76565b5b90600052602060002090600602016005015484805461054c90610ed4565b80601f016020809104026020016040519081016040528092919081815260200182805461057890610ed4565b80156105c55780601f1061059a576101008083540402835291602001916105c5565b820191906000526020600020905b8154815290600101906020018083116105a857829003601f168201915b5050505050945095509550955095509550955091939550919395565b600160009054906101000a900473ffffffffffffffffffffffffffffffffffffffff1673ffffffffffffffffffffffffffffffffffffffff163373ffffffffffffffffffffffffffffffffffffffff161461063b57600080fd5b34600282815481106106505761064f610e76565b5b9060005260206000209060060201600401546002838154811061067657610675610e76565b5b9060005260206000209060060201600301546106929190610f35565b1461069c57600080fd5b34600282815481106106b1576106b0610e76565b5b90600052602060002090600602016005018190555050565b60008054906101000a900473ffffffffffffffffffffffffffffffffffffffff1673ffffffffffffffffffffffffffffffffffffffff163373ffffffffffffffffffffffffffffffffffffffff161461072157600080fd5b806002838154811061073657610735610e76565b5b9060005260206000209060060201600401819055505050565b60008054906101000a900473ffffffffffffffffffffffffffffffffffffffff1673ffffffffffffffffffffffffffffffffffffffff163373ffffffffffffffffffffffffffffffffffffffff16146107a757600080fd5b80600283815481106107bc576107bb610e76565b5b9060005260206000209060060201600301819055505050565b600281815481106107e9576107e8610e76565b5b906000526020600020906006020160000160009054906101000a900473ffffffffffffffffffffffffffffffffffffffff1673ffffffffffffffffffffffffffffffffffffffff163373ffffffffffffffffffffffffffffffffffffffff161461085257600080fd5b60008054906101000a900473ffffffffffffffffffffffffffffffffffffffff1673ffffffffffffffffffffffffffffffffffffffff166108fc600283815481106108a05761089f610e76565b5b9060005260206000209060060201600301549081150290604051600060405180830381858888f193505050501580156108dd573d6000803e3d6000fd5b50600281815481106108f2576108f1610e76565b5b906000526020600020906006020160000160009054906101000a900473ffffffffffffffffffffffffffffffffffffffff1673ffffffffffffffffffffffffffffffffffffffff166108fc6002838154811061095157610950610e76565b5b9060005260206000209060060201600401549081150290604051600060405180830381858888f1935050505015801561098e573d6000803e3d6000fd5b5050565b82805461099e90610ed4565b90600052602060002090601f0160209004810192826109c05760008555610a07565b82601f106109d957805160ff1916838001178555610a07565b82800160010185558215610a07579182015b82811115610a065782518255916020019190600101906109eb565b5b509050610a149190610a18565b5090565b5b80821115610a31576000816000905550600101610a19565b5090565b600073ffffffffffffffffffffffffffffffffffffffff82169050919050565b6000610a6082610a35565b9050919050565b610a7081610a55565b82525050565b6000602082019050610a8b6000830184610a67565b92915050565b6000604051905090565b600080fd5b600080fd5b600080fd5b600080fd5b6000601f19601f8301169050919050565b7f4e487b7100000000000000000000000000000000000000000000000000000000600052604160045260246000fd5b610af882610aaf565b810181811067ffffffffffffffff82111715610b1757610b16610ac0565b5b80604052505050565b6000610b2a610a91565b9050610b368282610aef565b919050565b600067ffffffffffffffff821115610b5657610b55610ac0565b5b610b5f82610aaf565b9050602081019050919050565b82818337600083830152505050565b6000610b8e610b8984610b3b565b610b20565b905082815260208101848484011115610baa57610ba9610aaa565b5b610bb5848285610b6c565b509392505050565b600082601f830112610bd257610bd1610aa5565b5b8135610be2848260208601610b7b565b91505092915050565b6000819050919050565b610bfe81610beb565b8114610c0957600080fd5b50565b600081359050610c1b81610bf5565b92915050565b60008060408385031215610c3857610c37610a9b565b5b600083013567ffffffffffffffff811115610c5657610c55610aa0565b5b610c6285828601610bbd565b9250506020610c7385828601610c0c565b9150509250929050565b6000610c8882610a35565b9050919050565b610c9881610c7d565b8114610ca357600080fd5b50565b600081359050610cb581610c8f565b92915050565b60008060408385031215610cd257610cd1610a9b565b5b6000610ce085828601610c0c565b9250506020610cf185828601610ca6565b9150509250929050565b600060208284031215610d1157610d10610a9b565b5b6000610d1f84828501610c0c565b91505092915050565b610d3181610c7d565b82525050565b600081519050919050565b600082825260208201905092915050565b60005b83811015610d71578082015181840152602081019050610d56565b83811115610d80576000848401525b50505050565b6000610d9182610d37565b610d9b8185610d42565b9350610dab818560208601610d53565b610db481610aaf565b840191505092915050565b610dc881610beb565b82525050565b600060c082019050610de36000830189610d28565b8181036020830152610df58188610d86565b9050610e046040830187610dbf565b610e116060830186610dbf565b610e1e6080830185610dbf565b610e2b60a0830184610dbf565b979650505050505050565b60008060408385031215610e4d57610e4c610a9b565b5b6000610e5b85828601610c0c565b9250506020610e6c85828601610c0c565b9150509250929050565b7f4e487b7100000000000000000000000000000000000000000000000000000000600052603260045260246000fd5b7f4e487b7100000000000000000000000000000000000000000000000000000000600052602260045260246000fd5b60006002820490506001821680610eec57607f821691505b60208210811415610f0057610eff610ea5565b5b50919050565b7f4e487b7100000000000000000000000000000000000000000000000000000000600052601160045260246000fd5b6000610f4082610beb565b9150610f4b83610beb565b9250827fffffffffffffffffffffffffffffffffffffffffffffffffffffffffffffffff03821115610f8057610f7f610f06565b5b82820190509291505056fea2646970667358221220f80443487845e4f21bcecf0e3cc2a5f1798d07d0225c50758304b55d8c93fd9864736f6c634300080a0033",
  "immutableReferences": {},
  "source": "pragma solidity >=0.7.0 <0.9.0;\r\n\r\n/**\r\n * @title Storage\r\n * @dev Store & retrieve value in a variable\r\n */\r\ncontract transaction {\r\n address public seller;\r\n address public buyer;\r\n struct order{\r\n   address payable courier;\r\n   string product;\r\n   uint quantity;\r\n    uint price;\r\n    uint shipmentPrice;\r\n    uint payment;\r\n }\r\n  //mapping (uint => order) orders;\r\n  order[] orders;\r\n  /*address  payable seller;\r\n  address public  buyer;*/\r\n\r\n constructor (address buyer_) public payable {\r\n    seller = msg.sender;\r\n    buyer = buyer_;\r\n  }\r\n function createorder(string memory product_, uint quantity_) payable public{\r\n    require(msg.sender==buyer);\r\n    orders.push(order( payable(0), product_, quantity_, 0, 0, 0));\r\n\r\n  }\r\n  function setPrice(uint index, uint price_) payable public{\r\n      require(msg.sender==seller);\r\n      orders[index].price=price_;\r\n  }\r\n   function setShipmentPrice(uint index, uint shipmentprice_) payable public{\r\n      require(msg.sender==seller);\r\n      orders[index].shipmentPrice=shipmentprice_;\r\n  }\r\n  function setCourier(uint index, address payable address_) payable public{\r\n    require(msg.sender==seller);\r\n    orders[index].courier=address_;\r\n  }\r\n  function payForOrder(uint index)payable public{\r\n    require(msg.sender==buyer);\r\n    require((orders[index].price+orders[index].shipmentPrice)==msg.value);\r\n    orders[index].payment=msg.value;\r\n  }\r\n  function confirmDelivery(uint index) payable public{\r\n    require(msg.sender==orders[index].courier);\r\n    payable(seller).transfer(orders[index].price);\r\n    \r\n    orders[index].courier.transfer(orders[index].shipmentPrice);\r\n\r\n  }\r\n\r\n  function getOrderInfo(uint index) view public returns(address payable courier, string memory product, uint quantity, uint price, uint shipmnetPrice, uint payment ) {\r\n    \r\n    return (orders[index].courier, orders[index].product, orders[index].quantity,  orders[index].price, orders[index].shipmentPrice, orders[index].payment);\r\n  }\r\n\r\n\r\n}",
  "sourcePath": "C:\\Users\\karol\\my-app\\contracts\\uzd3.sol",
  "compiler": {
    "name": "solc",
    "version": "0.8.10+commit.fc410830.Emscripten.clang"
  },
  "schemaVersion": "3.4.3",
  "updatedAt": "2021-12-08T22:25:18.595Z",
  "networkType": "ethereum",
  "devdoc": {
    "details": "Store & retrieve value in a variable",
    "kind": "dev",
    "methods": {},
    "title": "Storage",
    "version": 1
  },
  "userdoc": {
    "kind": "user",
    "methods": {},
    "version": 1
  }
}